{
    "contractName": "Faucet",
    "abi": [
        {
            "inputs": [
                {
                    "internalType": "uint256",
                    "name": "retryAmount",
                    "type": "uint256"
                }
            ],
            "stateMutability": "payable",
            "type": "constructor"
        },
        {
            "inputs": [],
            "name": "canParticipate",
            "outputs": [
                {
                    "internalType": "bool",
                    "name": "",
                    "type": "bool"
                }
            ],
            "stateMutability": "view",
            "type": "function"
        },
        {
            "inputs": [],
            "name": "getElapsedTime",
            "outputs": [
                {
                    "internalType": "uint256",
                    "name": "",
                    "type": "uint256"
                }
            ],
            "stateMutability": "view",
            "type": "function"
        },
        {
            "inputs": [
                {
                    "internalType": "address",
                    "name": "recipient",
                    "type": "address"
                },
                {
                    "internalType": "uint256",
                    "name": "amount",
                    "type": "uint256"
                }
            ],
            "name": "grant",
            "outputs": [],
            "stateMutability": "nonpayable",
            "type": "function"
        },
        {
            "stateMutability": "payable",
            "type": "receive"
        }
    ],
    "bytecode": "608060405260036001556040516103913803806103918339810160408190526100279161002f565b600155610047565b600060208284031215610040578081fd5b5051919050565b61033b806100566000396000f3fe6080604052600436106100385760003560e01c8063125d7020146100445780636370920e1461006c578063a7d257f61461008e5761003f565b3661003f57005b600080fd5b34801561005057600080fd5b506100596100b3565b6040519081526020015b60405180910390f35b34801561007857600080fd5b5061008c61008736600461024b565b6100d2565b005b34801561009a57600080fd5b506100a3610224565b6040519015158152602001610063565b336000908152602081905260408120546100cd90426102d8565b905090565b6100da610224565b6100e357600080fd5b6040516370a0823160e01b815230600482015273fab46e002bbf0b4509813474841e0716e6730136906370a082319060240160206040518083038186803b15801561012d57600080fd5b505afa158015610141573d6000803e3d6000fd5b505050506040513d601f19601f8201168201806040525081019061016591906102a8565b81111561017157600080fd5b60405163a9059cbb60e01b81526001600160a01b03831660048201526024810182905273fab46e002bbf0b4509813474841e0716e67301369063a9059cbb90604401602060405180830381600087803b1580156101cd57600080fd5b505af11580156101e1573d6000803e3d6000fd5b505050506040513d601f19601f820116820180604052508101906102059190610281565b61020e57600080fd5b5050336000908152602081905260409020429055565b600154336000908152602081905260408120549091429161024591906102c0565b10905090565b6000806040838503121561025d578182fd5b82356001600160a01b0381168114610273578283fd5b946020939093013593505050565b600060208284031215610292578081fd5b815180151581146102a1578182fd5b9392505050565b6000602082840312156102b9578081fd5b5051919050565b600082198211156102d3576102d36102ef565b500190565b6000828210156102ea576102ea6102ef565b500390565b634e487b7160e01b600052601160045260246000fdfea264697066735822122039db4ff150f6c6eecd50a25484ca2856051693bea861c8a030ac5d92d581d0ca64736f6c63430008020033",
    "sourcePath": "/Users/kelvin.bonilla/Documents/BadgerDAO/Contracts/Faucet.sol",
    "compiler": {
        "name": "solc",
        "version": "0.8.2+commit.661d1103"
    },
    "functionHashes": {
        "canParticipate()": "a7d257f6",
        "getElapsedTime()": "125d7020",
        "grant(address,uint256)": "6370920e"
    },
    "gasEstimates": {
        "creation": {
            "codeDepositCost": "165400",
            "executionCost": "infinite",
            "totalCost": "infinite"
        },
        "external": {
            "canParticipate()": "1998",
            "getElapsedTime()": "1116",
            "grant(address,uint256)": "infinite"
        }
    }
}